{
  "contractName": "Concert",
  "abi": [
    {
      "constant": false,
      "inputs": [],
      "name": "resume",
      "outputs": [
        {
          "name": "",
          "type": "uint256"
        }
      ],
      "payable": false,
      "stateMutability": "nonpayable",
      "type": "function"
    },
    {
      "constant": true,
      "inputs": [],
      "name": "ticketPrice",
      "outputs": [
        {
          "name": "",
          "type": "uint256"
        }
      ],
      "payable": false,
      "stateMutability": "view",
      "type": "function"
    },
    {
      "inputs": [
        {
          "name": "_concertName",
          "type": "string"
        },
        {
          "name": "_etherPrice",
          "type": "uint256"
        }
      ],
      "payable": false,
      "stateMutability": "view",
      "type": "function",
      "constant": true,
      "name": "concertName",
      "outputs": [
        {
          "name": "",
          "type": "string"
        }
      ]
    },
    {
      "constant": true,
      "inputs": [],
      "name": "paused",
      "outputs": [
        {
          "name": "",
          "type": "bool"
        }
      ],
      "payable": false,
      "stateMutability": "view",
      "type": "function"
    },
    {
      "constant": false,
      "inputs": [],
      "name": "destroy",
      "outputs": [],
      "payable": false,
      "stateMutability": "nonpayable",
      "type": "function"
    },
    {
      "constant": false,
      "inputs": [],
      "name": "pause",
      "outputs": [],
      "payable": false,
      "stateMutability": "nonpayable",
      "type": "function"
    },
    {
      "constant": true,
      "inputs": [],
      "name": "owner",
      "outputs": [
        {
          "name": "",
          "type": "address"
        }
      ],
      "payable": false,
      "stateMutability": "view",
      "type": "function"
    },
    {
      "constant": false,
      "inputs": [
        {
          "name": "_newOwner",
          "type": "address"
        }
      ],
      "name": "transferOwnership",
      "outputs": [],
      "payable": false,
      "stateMutability": "nonpayable",
      "type": "function"
    },
    {
      "inputs": [
        {
          "name": "_concertName",
          "type": "string"
        },
        {
          "name": "_etherPrice",
          "type": "uint256"
        }
      ],
      "payable": false,
      "stateMutability": "nonpayable",
      "type": "constructor"
    },
    {
      "constant": false,
      "inputs": [],
      "name": "buyTicket",
      "outputs": [],
      "payable": true,
      "stateMutability": "payable",
      "type": "function"
    }
  ],
  "bytecode": "0x608060405234801561001057600080fd5b50604051610afa380380610afa8339810180604052604081101561003357600080fd5b81019080805164010000000081111561004b57600080fd5b8281019050602081018481111561006157600080fd5b815185600182028301116401000000008211171561007e57600080fd5b505092919060200180519060200190929190505050336000806101000a81548173ffffffffffffffffffffffffffffffffffffffff021916908373ffffffffffffffffffffffffffffffffffffffff16021790555081600190805190602001906100e9929190610102565b50670de0b6b3a7640000810260028190555050506101a7565b828054600181600116156101000203166002900490600052602060002090601f016020900481019282601f1061014357805160ff1916838001178555610171565b82800160010185558215610171579182015b82811115610170578251825591602001919060010190610155565b5b50905061017e9190610182565b5090565b6101a491905b808211156101a0576000816000905550600101610188565b5090565b90565b610944806101b66000396000f3fe608060405260043610610099576000357c0100000000000000000000000000000000000000000000000000000000900463ffffffff168063046f7da21461009e5780631209b1f6146100b557806354ec92d8146100e05780635c975abb1461017057806383197ef01461019f5780638456cb59146101b65780638da5cb5b146101cd578063edca914c14610224578063f2fde38b1461022e575b600080fd5b3480156100aa57600080fd5b506100b361027f565b005b3480156100c157600080fd5b506100ca61035f565b6040518082815260200191505060405180910390f35b3480156100ec57600080fd5b506100f5610365565b6040518080602001828103825283818151815260200191508051906020019080838360005b8381101561013557808201518184015260208101905061011a565b50505050905090810190601f1680156101625780820380516001836020036101000a031916815260200191505b509250505060405180910390f35b34801561017c57600080fd5b50610185610403565b604051808215151515815260200191505060405180910390f35b3480156101ab57600080fd5b506101b4610416565b005b3480156101c257600080fd5b506101cb610514565b005b3480156101d957600080fd5b506101e26105f5565b604051808273ffffffffffffffffffffffffffffffffffffffff1673ffffffffffffffffffffffffffffffffffffffff16815260200191505060405180910390f35b61022c61061a565b005b34801561023a57600080fd5b5061027d6004803603602081101561025157600080fd5b81019080803573ffffffffffffffffffffffffffffffffffffffff169060200190929190505050610722565b005b6000809054906101000a900473ffffffffffffffffffffffffffffffffffffffff1673ffffffffffffffffffffffffffffffffffffffff163373ffffffffffffffffffffffffffffffffffffffff16141515610343576040517f08c379a000000000000000000000000000000000000000000000000000000000815260040180806020018281038252600a8152602001807f4f6e6c79204f776e65720000000000000000000000000000000000000000000081525060200191505060405180910390fd5b60008060146101000a81548160ff021916908315150217905550565b60025481565b60018054600181600116156101000203166002900480601f0160208091040260200160405190810160405280929190818152602001828054600181600116156101000203166002900480156103fb5780601f106103d0576101008083540402835291602001916103fb565b820191906000526020600020905b8154815290600101906020018083116103de57829003601f168201915b505050505081565b600060149054906101000a900460ff1681565b6000809054906101000a900473ffffffffffffffffffffffffffffffffffffffff1673ffffffffffffffffffffffffffffffffffffffff163373ffffffffffffffffffffffffffffffffffffffff161415156104da576040517f08c379a000000000000000000000000000000000000000000000000000000000815260040180806020018281038252600a8152602001807f4f6e6c79204f776e65720000000000000000000000000000000000000000000081525060200191505060405180910390fd5b6000809054906101000a900473ffffffffffffffffffffffffffffffffffffffff1673ffffffffffffffffffffffffffffffffffffffff16ff5b6000809054906101000a900473ffffffffffffffffffffffffffffffffffffffff1673ffffffffffffffffffffffffffffffffffffffff163373ffffffffffffffffffffffffffffffffffffffff161415156105d8576040517f08c379a000000000000000000000000000000000000000000000000000000000815260040180806020018281038252600a8152602001807f4f6e6c79204f776e65720000000000000000000000000000000000000000000081525060200191505060405180910390fd5b6001600060146101000a81548160ff021916908315150217905550565b6000809054906101000a900473ffffffffffffffffffffffffffffffffffffffff1681565b60025434141515610693576040517f08c379a000000000000000000000000000000000000000000000000000000000815260040180806020018281038252600f8152602001807f496e636f7272656374207072696365000000000000000000000000000000000081525060200191505060405180910390fd5b61069c33610867565b15156106b2576106ad3360016108bd565b610720565b6040517f08c379a000000000000000000000000000000000000000000000000000000000815260040180806020018281038252600e8152602001807f416c726561647920636c69656e7400000000000000000000000000000000000081525060200191505060405180910390fd5b565b6000809054906101000a900473ffffffffffffffffffffffffffffffffffffffff1673ffffffffffffffffffffffffffffffffffffffff163373ffffffffffffffffffffffffffffffffffffffff161415156107e6576040517f08c379a000000000000000000000000000000000000000000000000000000000815260040180806020018281038252600a8152602001807f4f6e6c79204f776e65720000000000000000000000000000000000000000000081525060200191505060405180910390fd5b80600073ffffffffffffffffffffffffffffffffffffffff168173ffffffffffffffffffffffffffffffffffffffff161415151561082357600080fd5b816000806101000a81548173ffffffffffffffffffffffffffffffffffffffff021916908373ffffffffffffffffffffffffffffffffffffffff1602179055505050565b6000600360008373ffffffffffffffffffffffffffffffffffffffff1673ffffffffffffffffffffffffffffffffffffffff16815260200190815260200160002060009054906101000a900460ff169050919050565b80600360008473ffffffffffffffffffffffffffffffffffffffff1673ffffffffffffffffffffffffffffffffffffffff16815260200190815260200160002060006101000a81548160ff021916908315150217905550505056fea165627a7a7230582084d312b945de90d32b79551d3a3867eea31cb948b3b87123b8b193f00ceb07ee0029",
  "source": "pragma solidity ^0.5.0;\r\n\r\nimport './Pausable.sol';\r\n\r\n// Funcionalidades:\r\n//  - Buy\r\n//  - Refund account\r\n//  - Refund to account\r\n// Herencia:\r\n//  - Ownable\r\n//  - Pausable\r\n// Events\r\ncontract Concert is Pausable{\r\n\r\n    string public concertName;\r\n    uint public ticketPrice;\r\n\r\n    mapping(address => bool) customers;\r\n\r\n    constructor(string memory _concertName, uint _etherPrice) public {\r\n        concertName = _concertName;\r\n        ticketPrice = _etherPrice * 1 ether;       \r\n    }\r\n\r\n    function buyTicket() payable public {\r\n        require(msg.value == ticketPrice, \"Incorrect price\");\r\n        if (!_isCustomer(msg.sender)) {\r\n            // Si no es customer ==> Puede comprar\r\n            _setPurchaseStatus(msg.sender, true);\r\n        } else {\r\n            // Si es customer ==> Revertir\r\n            revert(\"Already client\");\r\n        }\r\n    }\r\n\r\n    modifier isCustomer() {\r\n        require(_isCustomer(msg.sender));\r\n        _;\r\n    }\r\n\r\n    function _isCustomer(address _account) private view returns (bool) {\r\n        return customers[_account];\r\n    }\r\n\r\n    function _setPurchaseStatus(address _account, bool _status) private {\r\n        customers[_account] = _status;\r\n        \r\n    }\r\n}",
  "sourcePath": "C:/Users/ibernal/Desktop/FormacionBlockChain/Concerts/contracts/Concerts.sol",
  "compiler": {
    "name": "solc",
    "version": "0.5.0+commit.1d4f565a.Emscripten.clang"
  },
  "schemaVersion": "3.0.8",
  "updatedAt": "2019-04-29T14:29:26.972Z",
  "devdoc": {
    "methods": {}
  },
  "userdoc": {
    "methods": {}
  }
}