{
  "contractName": "Concert",
  "abi": [
    {
      "constant": false,
      "inputs": [],
      "name": "resume",
      "outputs": [
        {
          "name": "",
          "type": "uint256"
        }
      ],
      "payable": false,
      "stateMutability": "nonpayable",
      "type": "function",
      "signature": "0x046f7da2"
    },
    {
      "constant": true,
      "inputs": [],
      "name": "ticketPrice",
      "outputs": [
        {
          "name": "",
          "type": "uint256"
        }
      ],
      "payable": false,
      "stateMutability": "view",
      "type": "function",
      "signature": "0x1209b1f6"
    },
    {
      "inputs": [
        {
          "name": "_concertName",
          "type": "string"
        },
        {
          "name": "_etherPrice",
          "type": "uint256"
        }
      ],
      "payable": false,
      "stateMutability": "view",
      "type": "function",
      "constant": true,
      "name": "concertName",
      "outputs": [
        {
          "name": "",
          "type": "string"
        }
      ],
      "signature": "0xe680ae69"
    },
    {
      "constant": true,
      "inputs": [],
      "name": "paused",
      "outputs": [
        {
          "name": "",
          "type": "bool"
        }
      ],
      "payable": false,
      "stateMutability": "view",
      "type": "function",
      "signature": "0x5c975abb"
    },
    {
      "constant": false,
      "inputs": [],
      "name": "destroy",
      "outputs": [],
      "payable": false,
      "stateMutability": "nonpayable",
      "type": "function",
      "signature": "0x83197ef0"
    },
    {
      "constant": false,
      "inputs": [],
      "name": "pause",
      "outputs": [],
      "payable": false,
      "stateMutability": "nonpayable",
      "type": "function",
      "signature": "0x8456cb59"
    },
    {
      "constant": true,
      "inputs": [],
      "name": "owner",
      "outputs": [
        {
          "name": "",
          "type": "address"
        }
      ],
      "payable": false,
      "stateMutability": "view",
      "type": "function",
      "signature": "0x8da5cb5b"
    },
    {
      "constant": false,
      "inputs": [
        {
          "name": "_newOwner",
          "type": "address"
        }
      ],
      "name": "transferOwnership",
      "outputs": [],
      "payable": false,
      "stateMutability": "nonpayable",
      "type": "function",
      "signature": "0xf2fde38b"
    },
    {
      "inputs": [
        {
          "name": "_concertName",
          "type": "string"
        },
        {
          "name": "_etherPrice",
          "type": "uint256"
        }
      ],
      "payable": false,
      "stateMutability": "nonpayable",
      "type": "constructor",
      "signature": "constructor"
    },
    {
      "constant": true,
      "inputs": [
        {
          "name": "_account",
          "type": "address"
        }
      ],
      "name": "isAccountCustomer",
      "outputs": [
        {
          "name": "",
          "type": "bool"
        }
      ],
      "payable": false,
      "stateMutability": "view",
      "type": "function",
      "signature": "0xb6384fc8"
    },
    {
      "constant": false,
      "inputs": [],
      "name": "buyTicket",
      "outputs": [],
      "payable": true,
      "stateMutability": "payable",
      "type": "function",
      "signature": "0xedca914c"
    },
    {
      "constant": false,
      "inputs": [],
      "name": "refundTicket",
      "outputs": [],
      "payable": true,
      "stateMutability": "payable",
      "type": "function",
      "signature": "0x713a3c93"
    },
    {
      "constant": false,
      "inputs": [
        {
          "name": "_account",
          "type": "address"
        }
      ],
      "name": "refundTicketToAccount",
      "outputs": [],
      "payable": true,
      "stateMutability": "payable",
      "type": "function",
      "signature": "0x47150798"
    },
    {
      "constant": false,
      "inputs": [
        {
          "name": "_to",
          "type": "address"
        }
      ],
      "name": "transferTicket",
      "outputs": [],
      "payable": false,
      "stateMutability": "nonpayable",
      "type": "function",
      "signature": "0x6afadefb"
    }
  ],
  "bytecode": "0x608060405234801561001057600080fd5b50604051610ec8380380610ec88339810180604052604081101561003357600080fd5b81019080805164010000000081111561004b57600080fd5b8281019050602081018481111561006157600080fd5b815185600182028301116401000000008211171561007e57600080fd5b505092919060200180519060200190929190505050336000806101000a81548173ffffffffffffffffffffffffffffffffffffffff021916908373ffffffffffffffffffffffffffffffffffffffff16021790555081600190805190602001906100e9929190610102565b50670de0b6b3a7640000810260028190555050506101a7565b828054600181600116156101000203166002900490600052602060002090601f016020900481019282601f1061014357805160ff1916838001178555610171565b82800160010185558215610171579182015b82811115610170578251825591602001919060010190610155565b5b50905061017e9190610182565b5090565b6101a491905b808211156101a0576000816000905550600101610188565b5090565b90565b610d12806101b66000396000f3fe6080604052600436106100c5576000357c0100000000000000000000000000000000000000000000000000000000900463ffffffff168063046f7da2146100ca5780631209b1f6146100e1578063471507981461010c57806354ec92d8146101505780635c975abb146101e05780636afadefb1461020f578063713a3c931461026057806383197ef01461026a5780638456cb59146102815780638da5cb5b14610298578063b6384fc8146102ef578063edca914c14610358578063f2fde38b14610362575b600080fd5b3480156100d657600080fd5b506100df6103b3565b005b3480156100ed57600080fd5b506100f6610493565b6040518082815260200191505060405180910390f35b61014e6004803603602081101561012257600080fd5b81019080803573ffffffffffffffffffffffffffffffffffffffff169060200190929190505050610499565b005b34801561015c57600080fd5b506101656104f7565b6040518080602001828103825283818151815260200191508051906020019080838360005b838110156101a557808201518184015260208101905061018a565b50505050905090810190601f1680156101d25780820380516001836020036101000a031916815260200191505b509250505060405180910390f35b3480156101ec57600080fd5b506101f5610595565b604051808215151515815260200191505060405180910390f35b34801561021b57600080fd5b5061025e6004803603602081101561023257600080fd5b81019080803573ffffffffffffffffffffffffffffffffffffffff1690602001909291905050506105a8565b005b610268610691565b005b34801561027657600080fd5b5061027f6106b0565b005b34801561028d57600080fd5b506102966107ae565b005b3480156102a457600080fd5b506102ad61088f565b604051808273ffffffffffffffffffffffffffffffffffffffff1673ffffffffffffffffffffffffffffffffffffffff16815260200191505060405180910390f35b3480156102fb57600080fd5b5061033e6004803603602081101561031257600080fd5b81019080803573ffffffffffffffffffffffffffffffffffffffff1690602001909291905050506108b4565b604051808215151515815260200191505060405180910390f35b61036061098a565b005b34801561036e57600080fd5b506103b16004803603602081101561038557600080fd5b81019080803573ffffffffffffffffffffffffffffffffffffffff169060200190929190505050610a92565b005b6000809054906101000a900473ffffffffffffffffffffffffffffffffffffffff1673ffffffffffffffffffffffffffffffffffffffff163373ffffffffffffffffffffffffffffffffffffffff16141515610477576040517f08c379a000000000000000000000000000000000000000000000000000000000815260040180806020018281038252600a8152602001807f4f6e6c79204f776e65720000000000000000000000000000000000000000000081525060200191505060405180910390fd5b60008060146101000a81548160ff021916908315150217905550565b60025481565b6104a233610bd7565b15156104ad57600080fd5b80600073ffffffffffffffffffffffffffffffffffffffff168173ffffffffffffffffffffffffffffffffffffffff16141515156104ea57600080fd5b6104f382610c34565b5050565b60018054600181600116156101000203166002900480601f01602080910402602001604051908101604052809291908181526020018280546001816001161561010002031660029004801561058d5780601f106105625761010080835404028352916020019161058d565b820191906000526020600020905b81548152906001019060200180831161057057829003601f168201915b505050505081565b600060149054906101000a900460ff1681565b6105b133610bd7565b15156105bc57600080fd5b80600073ffffffffffffffffffffffffffffffffffffffff168173ffffffffffffffffffffffffffffffffffffffff16141515156105f957600080fd5b61060282610bd7565b151515610677576040517f08c379a000000000000000000000000000000000000000000000000000000000815260040180806020018281038252600f8152602001807f416c7265616479437573746f6d6572000000000000000000000000000000000081525060200191505060405180910390fd5b610682336000610c8b565b61068d826001610c8b565b5050565b61069a33610bd7565b15156106a557600080fd5b6106ae33610c34565b565b6000809054906101000a900473ffffffffffffffffffffffffffffffffffffffff1673ffffffffffffffffffffffffffffffffffffffff163373ffffffffffffffffffffffffffffffffffffffff16141515610774576040517f08c379a000000000000000000000000000000000000000000000000000000000815260040180806020018281038252600a8152602001807f4f6e6c79204f776e65720000000000000000000000000000000000000000000081525060200191505060405180910390fd5b6000809054906101000a900473ffffffffffffffffffffffffffffffffffffffff1673ffffffffffffffffffffffffffffffffffffffff16ff5b6000809054906101000a900473ffffffffffffffffffffffffffffffffffffffff1673ffffffffffffffffffffffffffffffffffffffff163373ffffffffffffffffffffffffffffffffffffffff16141515610872576040517f08c379a000000000000000000000000000000000000000000000000000000000815260040180806020018281038252600a8152602001807f4f6e6c79204f776e65720000000000000000000000000000000000000000000081525060200191505060405180910390fd5b6001600060146101000a81548160ff021916908315150217905550565b6000809054906101000a900473ffffffffffffffffffffffffffffffffffffffff1681565b60008060009054906101000a900473ffffffffffffffffffffffffffffffffffffffff1673ffffffffffffffffffffffffffffffffffffffff163373ffffffffffffffffffffffffffffffffffffffff1614151561097a576040517f08c379a000000000000000000000000000000000000000000000000000000000815260040180806020018281038252600a8152602001807f4f6e6c79204f776e65720000000000000000000000000000000000000000000081525060200191505060405180910390fd5b61098382610bd7565b9050919050565b60025434141515610a03576040517f08c379a000000000000000000000000000000000000000000000000000000000815260040180806020018281038252600e8152602001807f496e636f7272656374507269636500000000000000000000000000000000000081525060200191505060405180910390fd5b610a0c33610bd7565b1515610a2257610a1d336001610c8b565b610a90565b6040517f08c379a000000000000000000000000000000000000000000000000000000000815260040180806020018281038252600d8152602001807f416c7265616479436c69656e740000000000000000000000000000000000000081525060200191505060405180910390fd5b565b6000809054906101000a900473ffffffffffffffffffffffffffffffffffffffff1673ffffffffffffffffffffffffffffffffffffffff163373ffffffffffffffffffffffffffffffffffffffff16141515610b56576040517f08c379a000000000000000000000000000000000000000000000000000000000815260040180806020018281038252600a8152602001807f4f6e6c79204f776e65720000000000000000000000000000000000000000000081525060200191505060405180910390fd5b80600073ffffffffffffffffffffffffffffffffffffffff168173ffffffffffffffffffffffffffffffffffffffff1614151515610b9357600080fd5b816000806101000a81548173ffffffffffffffffffffffffffffffffffffffff021916908373ffffffffffffffffffffffffffffffffffffffff1602179055505050565b600060011515600360008473ffffffffffffffffffffffffffffffffffffffff1673ffffffffffffffffffffffffffffffffffffffff16815260200190815260200160002060009054906101000a900460ff161515149050919050565b610c3f336000610c8b565b8073ffffffffffffffffffffffffffffffffffffffff166108fc6002549081150290604051600060405180830381858888f19350505050158015610c87573d6000803e3d6000fd5b5050565b80600360008473ffffffffffffffffffffffffffffffffffffffff1673ffffffffffffffffffffffffffffffffffffffff16815260200190815260200160002060006101000a81548160ff021916908315150217905550505056fea165627a7a72305820f185a86bc8723d3c35e1bcf82bec30e1ddfbb207392b0ce8164770068c4fe42b0029",
  "source": "pragma solidity ^0.5.0;\r\n\r\nimport './Pausable.sol';\r\n\r\n// Funcionalidades:\r\n//  - Buy\r\n//  - Refund account\r\n//  - Refund to account\r\n// Herencia:\r\n//  - Ownable\r\n//  - Pausable\r\n// Events\r\ncontract Concert is Pausable {\r\n\r\n    string public concertName;\r\n    uint public ticketPrice;\r\n\r\n    mapping(address => bool) customers;\r\n\r\n    constructor(string memory _concertName, uint _etherPrice) public {\r\n        concertName = _concertName;\r\n        ticketPrice = _etherPrice * 1 ether;       \r\n    }\r\n\r\n    function isAccountCustomer(address _account) public view onlyOwner returns (bool) {\r\n        return _isCustomer(_account);\r\n    }\r\n\r\n    function buyTicket() payable public {\r\n        require(msg.value == ticketPrice, \"IncorrectPrice\");\r\n        if (!_isCustomer(msg.sender)) {\r\n            // Si no es customer ==> Puede comprar\r\n            _setPurchaseStatus(msg.sender, true);\r\n        } else {\r\n            // Si es customer ==> Revertir\r\n            revert(\"AlreadyClient\");\r\n        }\r\n    }\r\n\r\n    function refundTicket() payable public isCustomer {\r\n        _refundTicket(msg.sender);\r\n    }\r\n\r\n    function refundTicketToAccount(address payable _account) payable public isCustomer validAccount(_account) {\r\n        _refundTicket(_account);\r\n    }\r\n\r\n    function transferTicket(address _to) public isCustomer validAccount(_to) {\r\n        require(!_isCustomer(_to), \"AlreadyCustomer\");\r\n \t\t_setPurchaseStatus(msg.sender, false);\r\n        _setPurchaseStatus(_to , true);\r\n    }\r\n\r\n    function _refundTicket (address payable _account) private {\r\n        _setPurchaseStatus(msg.sender, false);\r\n        _account.transfer(ticketPrice);\r\n    }\r\n\r\n    modifier isCustomer() {\r\n        require(_isCustomer(msg.sender));\r\n        _;\r\n    }\r\n\r\n    function _isCustomer(address _account) private view returns (bool) {\r\n        return customers[_account] == true;\r\n    }\r\n\r\n    function _setPurchaseStatus(address _account, bool _status) private {\r\n        customers[_account] = _status;\r\n    }\r\n}",
  "sourcePath": "C:/Users/ibernal/Desktop/FormacionBlockChain/Concerts/contracts/Concerts.sol",
  "compiler": {
    "name": "solc",
    "version": "0.5.0+commit.1d4f565a.Emscripten.clang"
  },
  "schemaVersion": "3.0.6",
  "updatedAt": "2019-04-30T10:53:59.203Z",
  "devdoc": {
    "methods": {}
  },
  "userdoc": {
    "methods": {}
  }
}