{
  "contractName": "Ownable",
  "abi": [
    {
      "constant": true,
      "inputs": [],
      "name": "owner",
      "outputs": [
        {
          "name": "",
          "type": "address"
        }
      ],
      "payable": false,
      "stateMutability": "view",
      "type": "function"
    },
    {
      "inputs": [],
      "payable": false,
      "stateMutability": "nonpayable",
      "type": "constructor"
    },
    {
      "constant": false,
      "inputs": [
        {
          "name": "_newOwner",
          "type": "address"
        }
      ],
      "name": "transferOwnership",
      "outputs": [],
      "payable": false,
      "stateMutability": "nonpayable",
      "type": "function"
    },
    {
      "constant": false,
      "inputs": [],
      "name": "destroy",
      "outputs": [],
      "payable": false,
      "stateMutability": "nonpayable",
      "type": "function"
    }
  ],
  "bytecode": "0x608060405234801561001057600080fd5b50336000806101000a81548173ffffffffffffffffffffffffffffffffffffffff021916908373ffffffffffffffffffffffffffffffffffffffff1602179055506103af806100606000396000f3fe608060405260043610610057576000357c0100000000000000000000000000000000000000000000000000000000900463ffffffff16806383197ef01461005c5780638da5cb5b14610073578063f2fde38b146100ca575b600080fd5b34801561006857600080fd5b5061007161011b565b005b34801561007f57600080fd5b50610088610219565b604051808273ffffffffffffffffffffffffffffffffffffffff1673ffffffffffffffffffffffffffffffffffffffff16815260200191505060405180910390f35b3480156100d657600080fd5b50610119600480360360208110156100ed57600080fd5b81019080803573ffffffffffffffffffffffffffffffffffffffff16906020019092919050505061023e565b005b6000809054906101000a900473ffffffffffffffffffffffffffffffffffffffff1673ffffffffffffffffffffffffffffffffffffffff163373ffffffffffffffffffffffffffffffffffffffff161415156101df576040517f08c379a000000000000000000000000000000000000000000000000000000000815260040180806020018281038252600a8152602001807f4f6e6c79204f776e65720000000000000000000000000000000000000000000081525060200191505060405180910390fd5b6000809054906101000a900473ffffffffffffffffffffffffffffffffffffffff1673ffffffffffffffffffffffffffffffffffffffff16ff5b6000809054906101000a900473ffffffffffffffffffffffffffffffffffffffff1681565b6000809054906101000a900473ffffffffffffffffffffffffffffffffffffffff1673ffffffffffffffffffffffffffffffffffffffff163373ffffffffffffffffffffffffffffffffffffffff16141515610302576040517f08c379a000000000000000000000000000000000000000000000000000000000815260040180806020018281038252600a8152602001807f4f6e6c79204f776e65720000000000000000000000000000000000000000000081525060200191505060405180910390fd5b80600073ffffffffffffffffffffffffffffffffffffffff168173ffffffffffffffffffffffffffffffffffffffff161415151561033f57600080fd5b816000806101000a81548173ffffffffffffffffffffffffffffffffffffffff021916908373ffffffffffffffffffffffffffffffffffffffff160217905550505056fea165627a7a723058209c9d1a686c5a91cfd8c5509f7d2639fe71d5032042703eaf212b396a6eef3bb20029",
  "source": "pragma solidity ^0.5.0;\r\n\r\ncontract Ownable {\r\n\r\n    address payable public owner;\r\n    \r\n    constructor() public {\r\n        owner = msg.sender;\r\n    }  \r\n\r\n    modifier onlyOwner() {\r\n        require(msg.sender == owner, \"Only Owner\");\r\n        _;\r\n    }\r\n    \r\n    modifier validAccount(address _account) {\r\n        require(_account != address(0x0));\r\n        _;\r\n    }\r\n\r\n    function transferOwnership(address payable _newOwner) public onlyOwner validAccount(_newOwner) {\r\n        owner = _newOwner;\r\n    }\r\n\r\n    function destroy() public onlyOwner {\r\n        selfdestruct(owner);\r\n    }\r\n}",
  "sourcePath": "C:\\Users\\ibernal\\Desktop\\FormacionBlockChain\\Concerts\\contracts\\Ownable.sol",
  "compiler": {
    "name": "solc",
    "version": "0.5.0+commit.1d4f565a.Emscripten.clang"
  },
  "schemaVersion": "3.0.6",
  "updatedAt": "2019-04-30T10:52:31.500Z",
  "devdoc": {
    "methods": {}
  },
  "userdoc": {
    "methods": {}
  }
}